{
  "_format": "hh-sol-artifact-1",
  "contractName": "NFT_ERC721",
  "sourceName": "contracts/NFT_ERC721.sol",
  "abi": [
    {
      "inputs": [],
      "stateMutability": "nonpayable",
      "type": "constructor"
    },
    {
      "anonymous": false,
      "inputs": [
        {
          "indexed": true,
          "internalType": "address",
          "name": "owner",
          "type": "address"
        },
        {
          "indexed": true,
          "internalType": "address",
          "name": "approved",
          "type": "address"
        },
        {
          "indexed": true,
          "internalType": "uint256",
          "name": "tokenId",
          "type": "uint256"
        }
      ],
      "name": "Approval",
      "type": "event"
    },
    {
      "anonymous": false,
      "inputs": [
        {
          "indexed": true,
          "internalType": "address",
          "name": "owner",
          "type": "address"
        },
        {
          "indexed": true,
          "internalType": "address",
          "name": "operator",
          "type": "address"
        },
        {
          "indexed": false,
          "internalType": "bool",
          "name": "approved",
          "type": "bool"
        }
      ],
      "name": "ApprovalForAll",
      "type": "event"
    },
    {
      "anonymous": false,
      "inputs": [
        {
          "indexed": false,
          "internalType": "uint256",
          "name": "_fromTokenId",
          "type": "uint256"
        },
        {
          "indexed": false,
          "internalType": "uint256",
          "name": "_toTokenId",
          "type": "uint256"
        }
      ],
      "name": "BatchMetadataUpdate",
      "type": "event"
    },
    {
      "anonymous": false,
      "inputs": [
        {
          "indexed": false,
          "internalType": "uint256",
          "name": "_tokenId",
          "type": "uint256"
        }
      ],
      "name": "MetadataUpdate",
      "type": "event"
    },
    {
      "anonymous": false,
      "inputs": [
        {
          "indexed": true,
          "internalType": "address",
          "name": "from",
          "type": "address"
        },
        {
          "indexed": true,
          "internalType": "address",
          "name": "to",
          "type": "address"
        },
        {
          "indexed": true,
          "internalType": "uint256",
          "name": "tokenId",
          "type": "uint256"
        }
      ],
      "name": "Transfer",
      "type": "event"
    },
    {
      "inputs": [
        {
          "internalType": "address",
          "name": "to",
          "type": "address"
        },
        {
          "internalType": "uint256",
          "name": "tokenId",
          "type": "uint256"
        }
      ],
      "name": "approve",
      "outputs": [],
      "stateMutability": "nonpayable",
      "type": "function"
    },
    {
      "inputs": [
        {
          "internalType": "address",
          "name": "_useraddr",
          "type": "address"
        },
        {
          "internalType": "string",
          "name": "username",
          "type": "string"
        },
        {
          "internalType": "string",
          "name": "_email",
          "type": "string"
        },
        {
          "internalType": "string",
          "name": "tokenURI",
          "type": "string"
        }
      ],
      "name": "awardDoc",
      "outputs": [
        {
          "internalType": "uint256",
          "name": "",
          "type": "uint256"
        }
      ],
      "stateMutability": "nonpayable",
      "type": "function"
    },
    {
      "inputs": [
        {
          "internalType": "address",
          "name": "owner",
          "type": "address"
        }
      ],
      "name": "balanceOf",
      "outputs": [
        {
          "internalType": "uint256",
          "name": "",
          "type": "uint256"
        }
      ],
      "stateMutability": "view",
      "type": "function"
    },
    {
      "inputs": [
        {
          "internalType": "uint256",
          "name": "_tokenId",
          "type": "uint256"
        }
      ],
      "name": "cancelDoc",
      "outputs": [],
      "stateMutability": "nonpayable",
      "type": "function"
    },
    {
      "inputs": [
        {
          "internalType": "uint256",
          "name": "tokenId",
          "type": "uint256"
        }
      ],
      "name": "getApproved",
      "outputs": [
        {
          "internalType": "address",
          "name": "",
          "type": "address"
        }
      ],
      "stateMutability": "view",
      "type": "function"
    },
    {
      "inputs": [
        {
          "internalType": "address",
          "name": "owner",
          "type": "address"
        },
        {
          "internalType": "address",
          "name": "operator",
          "type": "address"
        }
      ],
      "name": "isApprovedForAll",
      "outputs": [
        {
          "internalType": "bool",
          "name": "",
          "type": "bool"
        }
      ],
      "stateMutability": "view",
      "type": "function"
    },
    {
      "inputs": [],
      "name": "name",
      "outputs": [
        {
          "internalType": "string",
          "name": "",
          "type": "string"
        }
      ],
      "stateMutability": "view",
      "type": "function"
    },
    {
      "inputs": [
        {
          "internalType": "uint256",
          "name": "tokenId",
          "type": "uint256"
        }
      ],
      "name": "ownerOf",
      "outputs": [
        {
          "internalType": "address",
          "name": "",
          "type": "address"
        }
      ],
      "stateMutability": "view",
      "type": "function"
    },
    {
      "inputs": [
        {
          "internalType": "address",
          "name": "from",
          "type": "address"
        },
        {
          "internalType": "address",
          "name": "to",
          "type": "address"
        },
        {
          "internalType": "uint256",
          "name": "tokenId",
          "type": "uint256"
        }
      ],
      "name": "safeTransferFrom",
      "outputs": [],
      "stateMutability": "nonpayable",
      "type": "function"
    },
    {
      "inputs": [
        {
          "internalType": "address",
          "name": "from",
          "type": "address"
        },
        {
          "internalType": "address",
          "name": "to",
          "type": "address"
        },
        {
          "internalType": "uint256",
          "name": "tokenId",
          "type": "uint256"
        },
        {
          "internalType": "bytes",
          "name": "data",
          "type": "bytes"
        }
      ],
      "name": "safeTransferFrom",
      "outputs": [],
      "stateMutability": "nonpayable",
      "type": "function"
    },
    {
      "inputs": [
        {
          "internalType": "address",
          "name": "operator",
          "type": "address"
        },
        {
          "internalType": "bool",
          "name": "approved",
          "type": "bool"
        }
      ],
      "name": "setApprovalForAll",
      "outputs": [],
      "stateMutability": "nonpayable",
      "type": "function"
    },
    {
      "inputs": [
        {
          "internalType": "bytes4",
          "name": "interfaceId",
          "type": "bytes4"
        }
      ],
      "name": "supportsInterface",
      "outputs": [
        {
          "internalType": "bool",
          "name": "",
          "type": "bool"
        }
      ],
      "stateMutability": "view",
      "type": "function"
    },
    {
      "inputs": [],
      "name": "symbol",
      "outputs": [
        {
          "internalType": "string",
          "name": "",
          "type": "string"
        }
      ],
      "stateMutability": "view",
      "type": "function"
    },
    {
      "inputs": [
        {
          "internalType": "uint256",
          "name": "tokenId",
          "type": "uint256"
        }
      ],
      "name": "tokenURI",
      "outputs": [
        {
          "internalType": "string",
          "name": "",
          "type": "string"
        }
      ],
      "stateMutability": "view",
      "type": "function"
    },
    {
      "inputs": [
        {
          "internalType": "address",
          "name": "_to",
          "type": "address"
        },
        {
          "internalType": "uint256",
          "name": "_tokenId",
          "type": "uint256"
        }
      ],
      "name": "transferDoc",
      "outputs": [],
      "stateMutability": "nonpayable",
      "type": "function"
    },
    {
      "inputs": [
        {
          "internalType": "address",
          "name": "from",
          "type": "address"
        },
        {
          "internalType": "address",
          "name": "to",
          "type": "address"
        },
        {
          "internalType": "uint256",
          "name": "tokenId",
          "type": "uint256"
        }
      ],
      "name": "transferFrom",
      "outputs": [],
      "stateMutability": "nonpayable",
      "type": "function"
    },
    {
      "inputs": [
        {
          "internalType": "address",
          "name": "",
          "type": "address"
        },
        {
          "internalType": "uint256",
          "name": "",
          "type": "uint256"
        }
      ],
      "name": "users",
      "outputs": [
        {
          "internalType": "address",
          "name": "_useraddr",
          "type": "address"
        },
        {
          "internalType": "string",
          "name": "username",
          "type": "string"
        },
        {
          "internalType": "string",
          "name": "email",
          "type": "string"
        },
        {
          "internalType": "uint256",
          "name": "_tokenId",
          "type": "uint256"
        }
      ],
      "stateMutability": "view",
      "type": "function"
    },
    {
      "inputs": [
        {
          "internalType": "uint256",
          "name": "_tokenId",
          "type": "uint256"
        }
      ],
      "name": "viewDoc",
      "outputs": [
        {
          "internalType": "string",
          "name": "",
          "type": "string"
        }
      ],
      "stateMutability": "view",
      "type": "function"
    },
    {
      "inputs": [
        {
          "internalType": "uint256",
          "name": "_tokenId",
          "type": "uint256"
        }
      ],
      "name": "viewOwner",
      "outputs": [
        {
          "components": [
            {
              "internalType": "address",
              "name": "_useraddr",
              "type": "address"
            },
            {
              "internalType": "string",
              "name": "username",
              "type": "string"
            },
            {
              "internalType": "string",
              "name": "email",
              "type": "string"
            },
            {
              "internalType": "uint256",
              "name": "_tokenId",
              "type": "uint256"
            }
          ],
          "internalType": "struct NFT_ERC721.User",
          "name": "",
          "type": "tuple"
        }
      ],
      "stateMutability": "view",
      "type": "function"
    }
  ],
  "bytecode": "0x60806040523480156200001157600080fd5b506040518060400160405280600a81526020017f4e46545f455243373231000000000000000000000000000000000000000000008152506040518060400160405280600381526020017f4e4654000000000000000000000000000000000000000000000000000000000081525081600090816200008f919062000324565b508060019081620000a1919062000324565b5050506200040b565b600081519050919050565b7f4e487b7100000000000000000000000000000000000000000000000000000000600052604160045260246000fd5b7f4e487b7100000000000000000000000000000000000000000000000000000000600052602260045260246000fd5b600060028204905060018216806200012c57607f821691505b602082108103620001425762000141620000e4565b5b50919050565b60008190508160005260206000209050919050565b60006020601f8301049050919050565b600082821b905092915050565b600060088302620001ac7fffffffffffffffffffffffffffffffffffffffffffffffffffffffffffffffff826200016d565b620001b886836200016d565b95508019841693508086168417925050509392505050565b6000819050919050565b6000819050919050565b600062000205620001ff620001f984620001d0565b620001da565b620001d0565b9050919050565b6000819050919050565b6200022183620001e4565b6200023962000230826200020c565b8484546200017a565b825550505050565b600090565b6200025062000241565b6200025d81848462000216565b505050565b5b8181101562000285576200027960008262000246565b60018101905062000263565b5050565b601f821115620002d4576200029e8162000148565b620002a9846200015d565b81016020851015620002b9578190505b620002d1620002c8856200015d565b83018262000262565b50505b505050565b600082821c905092915050565b6000620002f960001984600802620002d9565b1980831691505092915050565b6000620003148383620002e6565b9150826002028217905092915050565b6200032f82620000aa565b67ffffffffffffffff8111156200034b576200034a620000b5565b5b62000357825462000113565b6200036482828562000289565b600060209050601f8311600181146200039c576000841562000387578287015190505b62000393858262000306565b86555062000403565b601f198416620003ac8662000148565b60005b82811015620003d657848901518255600182019150602085019450602081019050620003af565b86831015620003f65784890151620003f2601f891682620002e6565b8355505b6001600288020188555050505b505050505050565b6135d7806200041b6000396000f3fe608060405234801561001057600080fd5b50600436106101215760003560e01c80637000ba65116100ad578063b88d4fde11610071578063b88d4fde14610341578063c078f0591461035d578063c87b56dd1461038d578063e4024d41146103bd578063e985e9c5146103d957610121565b80637000ba651461028b57806370a08231146102a757806392eb104c146102d757806395d89b4114610307578063a22cb4651461032557610121565b806323b872dd116100f457806323b872dd146101c05780633e4242da146101dc57806342842e0e1461020c57806354a02f9e146102285780636352211e1461025b57610121565b806301ffc9a71461012657806306fdde0314610156578063081812fc14610174578063095ea7b3146101a4575b600080fd5b610140600480360381019061013b919061225f565b610409565b60405161014d91906122a7565b60405180910390f35b61015e61046a565b60405161016b9190612352565b60405180910390f35b61018e600480360381019061018991906123aa565b6104fc565b60405161019b9190612418565b60405180910390f35b6101be60048036038101906101b9919061245f565b610542565b005b6101da60048036038101906101d5919061249f565b610659565b005b6101f660048036038101906101f191906123aa565b6106b9565b6040516102039190612352565b60405180910390f35b6102266004803603810190610221919061249f565b6106cb565b005b610242600480360381019061023d919061245f565b6106eb565b6040516102529493929190612501565b60405180910390f35b610275600480360381019061027091906123aa565b610868565b6040516102829190612418565b60405180910390f35b6102a560048036038101906102a091906123aa565b6108ee565b005b6102c160048036038101906102bc9190612554565b610970565b6040516102ce9190612581565b60405180910390f35b6102f160048036038101906102ec91906123aa565b610a27565b6040516102fe919061266e565b60405180910390f35b61030f610c33565b60405161031c9190612352565b60405180910390f35b61033f600480360381019061033a91906126bc565b610cc5565b005b61035b60048036038101906103569190612831565b610cdb565b005b61037760048036038101906103729190612955565b610d3d565b6040516103849190612581565b60405180910390f35b6103a760048036038101906103a291906123aa565b610e9b565b6040516103b49190612352565b60405180910390f35b6103d760048036038101906103d2919061245f565b610fad565b005b6103f360048036038101906103ee9190612a10565b610fbc565b60405161040091906122a7565b60405180910390f35b6000634906490660e01b7bffffffffffffffffffffffffffffffffffffffffffffffffffffffff1916827bffffffffffffffffffffffffffffffffffffffffffffffffffffffff19161480610463575061046282611050565b5b9050919050565b60606000805461047990612a7f565b80601f01602080910402602001604051908101604052809291908181526020018280546104a590612a7f565b80156104f25780601f106104c7576101008083540402835291602001916104f2565b820191906000526020600020905b8154815290600101906020018083116104d557829003601f168201915b5050505050905090565b600061050782611132565b6004600083815260200190815260200160002060009054906101000a900473ffffffffffffffffffffffffffffffffffffffff169050919050565b600061054d82610868565b90508073ffffffffffffffffffffffffffffffffffffffff168373ffffffffffffffffffffffffffffffffffffffff16036105bd576040517f08c379a00000000000000000000000000000000000000000000000000000000081526004016105b490612b22565b60405180910390fd5b8073ffffffffffffffffffffffffffffffffffffffff166105dc61117d565b73ffffffffffffffffffffffffffffffffffffffff16148061060b575061060a8161060561117d565b610fbc565b5b61064a576040517f08c379a000000000000000000000000000000000000000000000000000000000815260040161064190612bb4565b60405180910390fd5b6106548383611185565b505050565b61066a61066461117d565b8261123e565b6106a9576040517f08c379a00000000000000000000000000000000000000000000000000000000081526004016106a090612c46565b60405180910390fd5b6106b48383836112d3565b505050565b60606106c482610e9b565b9050919050565b6106e683838360405180602001604052806000815250610cdb565b505050565b6008602052816000526040600020818154811061070757600080fd5b9060005260206000209060040201600091509150508060000160009054906101000a900473ffffffffffffffffffffffffffffffffffffffff169080600101805461075190612a7f565b80601f016020809104026020016040519081016040528092919081815260200182805461077d90612a7f565b80156107ca5780601f1061079f576101008083540402835291602001916107ca565b820191906000526020600020905b8154815290600101906020018083116107ad57829003601f168201915b5050505050908060020180546107df90612a7f565b80601f016020809104026020016040519081016040528092919081815260200182805461080b90612a7f565b80156108585780601f1061082d57610100808354040283529160200191610858565b820191906000526020600020905b81548152906001019060200180831161083b57829003601f168201915b5050505050908060030154905084565b600080610874836115cc565b9050600073ffffffffffffffffffffffffffffffffffffffff168173ffffffffffffffffffffffffffffffffffffffff16036108e5576040517f08c379a00000000000000000000000000000000000000000000000000000000081526004016108dc90612cb2565b60405180910390fd5b80915050919050565b3373ffffffffffffffffffffffffffffffffffffffff1661090e82610868565b73ffffffffffffffffffffffffffffffffffffffff1614610964576040517f08c379a000000000000000000000000000000000000000000000000000000000815260040161095b90612d44565b60405180910390fd5b61096d81611609565b50565b60008073ffffffffffffffffffffffffffffffffffffffff168273ffffffffffffffffffffffffffffffffffffffff16036109e0576040517f08c379a00000000000000000000000000000000000000000000000000000000081526004016109d790612dd6565b60405180910390fd5b600360008373ffffffffffffffffffffffffffffffffffffffff1673ffffffffffffffffffffffffffffffffffffffff168152602001908152602001600020549050919050565b610a2f612158565b6000610a3a83610868565b9050600860008273ffffffffffffffffffffffffffffffffffffffff1673ffffffffffffffffffffffffffffffffffffffff168152602001908152602001600020600081548110610a8e57610a8d612df6565b5b90600052602060002090600402016040518060800160405290816000820160009054906101000a900473ffffffffffffffffffffffffffffffffffffffff1673ffffffffffffffffffffffffffffffffffffffff1673ffffffffffffffffffffffffffffffffffffffff168152602001600182018054610b0d90612a7f565b80601f0160208091040260200160405190810160405280929190818152602001828054610b3990612a7f565b8015610b865780601f10610b5b57610100808354040283529160200191610b86565b820191906000526020600020905b815481529060010190602001808311610b6957829003601f168201915b50505050508152602001600282018054610b9f90612a7f565b80601f0160208091040260200160405190810160405280929190818152602001828054610bcb90612a7f565b8015610c185780601f10610bed57610100808354040283529160200191610c18565b820191906000526020600020905b815481529060010190602001808311610bfb57829003601f168201915b50505050508152602001600382015481525050915050919050565b606060018054610c4290612a7f565b80601f0160208091040260200160405190810160405280929190818152602001828054610c6e90612a7f565b8015610cbb5780601f10610c9057610100808354040283529160200191610cbb565b820191906000526020600020905b815481529060010190602001808311610c9e57829003601f168201915b5050505050905090565b610cd7610cd061117d565b838361165c565b5050565b610cec610ce661117d565b8361123e565b610d2b576040517f08c379a0000000000000000000000000000000000000000000000000000000008152600401610d2290612c46565b60405180910390fd5b610d37848484846117c8565b50505050565b6000610d496007611824565b6000610d55600761183a565b9050610d618682611848565b610d6b8184611a65565b600060405180608001604052808873ffffffffffffffffffffffffffffffffffffffff168152602001878152602001868152602001838152509050600860008873ffffffffffffffffffffffffffffffffffffffff1673ffffffffffffffffffffffffffffffffffffffff16815260200190815260200160002081908060018154018082558091505060019003906000526020600020906004020160009091909190915060008201518160000160006101000a81548173ffffffffffffffffffffffffffffffffffffffff021916908373ffffffffffffffffffffffffffffffffffffffff1602179055506020820151816001019081610e6b9190612fd1565b506040820151816002019081610e819190612fd1565b506060820151816003015550508192505050949350505050565b6060610ea682611132565b6000600660008481526020019081526020016000208054610ec690612a7f565b80601f0160208091040260200160405190810160405280929190818152602001828054610ef290612a7f565b8015610f3f5780601f10610f1457610100808354040283529160200191610f3f565b820191906000526020600020905b815481529060010190602001808311610f2257829003601f168201915b505050505090506000610f50611b09565b90506000815103610f65578192505050610fa8565b600082511115610f9a578082604051602001610f829291906130df565b60405160208183030381529060405292505050610fa8565b610fa384611b20565b925050505b919050565b610fb83383836106cb565b5050565b6000600560008473ffffffffffffffffffffffffffffffffffffffff1673ffffffffffffffffffffffffffffffffffffffff16815260200190815260200160002060008373ffffffffffffffffffffffffffffffffffffffff1673ffffffffffffffffffffffffffffffffffffffff16815260200190815260200160002060009054906101000a900460ff16905092915050565b60007f80ac58cd000000000000000000000000000000000000000000000000000000007bffffffffffffffffffffffffffffffffffffffffffffffffffffffff1916827bffffffffffffffffffffffffffffffffffffffffffffffffffffffff1916148061111b57507f5b5e139f000000000000000000000000000000000000000000000000000000007bffffffffffffffffffffffffffffffffffffffffffffffffffffffff1916827bffffffffffffffffffffffffffffffffffffffffffffffffffffffff1916145b8061112b575061112a82611b88565b5b9050919050565b61113b81611bf2565b61117a576040517f08c379a000000000000000000000000000000000000000000000000000000000815260040161117190612cb2565b60405180910390fd5b50565b600033905090565b816004600083815260200190815260200160002060006101000a81548173ffffffffffffffffffffffffffffffffffffffff021916908373ffffffffffffffffffffffffffffffffffffffff160217905550808273ffffffffffffffffffffffffffffffffffffffff166111f883610868565b73ffffffffffffffffffffffffffffffffffffffff167f8c5be1e5ebec7d5bd14f71427d1e84f3dd0314c0f7b2291e5b200ac8c7c3b92560405160405180910390a45050565b60008061124a83610868565b90508073ffffffffffffffffffffffffffffffffffffffff168473ffffffffffffffffffffffffffffffffffffffff16148061128c575061128b8185610fbc565b5b806112ca57508373ffffffffffffffffffffffffffffffffffffffff166112b2846104fc565b73ffffffffffffffffffffffffffffffffffffffff16145b91505092915050565b8273ffffffffffffffffffffffffffffffffffffffff166112f382610868565b73ffffffffffffffffffffffffffffffffffffffff1614611349576040517f08c379a000000000000000000000000000000000000000000000000000000000815260040161134090613175565b60405180910390fd5b600073ffffffffffffffffffffffffffffffffffffffff168273ffffffffffffffffffffffffffffffffffffffff16036113b8576040517f08c379a00000000000000000000000000000000000000000000000000000000081526004016113af90613207565b60405180910390fd5b6113c58383836001611c33565b8273ffffffffffffffffffffffffffffffffffffffff166113e582610868565b73ffffffffffffffffffffffffffffffffffffffff161461143b576040517f08c379a000000000000000000000000000000000000000000000000000000000815260040161143290613175565b60405180910390fd5b6004600082815260200190815260200160002060006101000a81549073ffffffffffffffffffffffffffffffffffffffff02191690556001600360008573ffffffffffffffffffffffffffffffffffffffff1673ffffffffffffffffffffffffffffffffffffffff168152602001908152602001600020600082825403925050819055506001600360008473ffffffffffffffffffffffffffffffffffffffff1673ffffffffffffffffffffffffffffffffffffffff16815260200190815260200160002060008282540192505081905550816002600083815260200190815260200160002060006101000a81548173ffffffffffffffffffffffffffffffffffffffff021916908373ffffffffffffffffffffffffffffffffffffffff160217905550808273ffffffffffffffffffffffffffffffffffffffff168473ffffffffffffffffffffffffffffffffffffffff167fddf252ad1be2c89b69c2b068fc378daa952ba7f163c4a11628f55a4df523b3ef60405160405180910390a46115c78383836001611c39565b505050565b60006002600083815260200190815260200160002060009054906101000a900473ffffffffffffffffffffffffffffffffffffffff169050919050565b61161281611c3f565b600060066000838152602001908152602001600020805461163290612a7f565b905014611659576006600082815260200190815260200160002060006116589190612196565b5b50565b8173ffffffffffffffffffffffffffffffffffffffff168373ffffffffffffffffffffffffffffffffffffffff16036116ca576040517f08c379a00000000000000000000000000000000000000000000000000000000081526004016116c190613273565b60405180910390fd5b80600560008573ffffffffffffffffffffffffffffffffffffffff1673ffffffffffffffffffffffffffffffffffffffff16815260200190815260200160002060008473ffffffffffffffffffffffffffffffffffffffff1673ffffffffffffffffffffffffffffffffffffffff16815260200190815260200160002060006101000a81548160ff0219169083151502179055508173ffffffffffffffffffffffffffffffffffffffff168373ffffffffffffffffffffffffffffffffffffffff167f17307eab39ab6107e8899845ad3d59bd9653f200f220920489ca2b5937696c31836040516117bb91906122a7565b60405180910390a3505050565b6117d38484846112d3565b6117df84848484611d8d565b61181e576040517f08c379a000000000000000000000000000000000000000000000000000000000815260040161181590613305565b60405180910390fd5b50505050565b6001816000016000828254019250508190555050565b600081600001549050919050565b600073ffffffffffffffffffffffffffffffffffffffff168273ffffffffffffffffffffffffffffffffffffffff16036118b7576040517f08c379a00000000000000000000000000000000000000000000000000000000081526004016118ae90613371565b60405180910390fd5b6118c081611bf2565b15611900576040517f08c379a00000000000000000000000000000000000000000000000000000000081526004016118f7906133dd565b60405180910390fd5b61190e600083836001611c33565b61191781611bf2565b15611957576040517f08c379a000000000000000000000000000000000000000000000000000000000815260040161194e906133dd565b60405180910390fd5b6001600360008473ffffffffffffffffffffffffffffffffffffffff1673ffffffffffffffffffffffffffffffffffffffff16815260200190815260200160002060008282540192505081905550816002600083815260200190815260200160002060006101000a81548173ffffffffffffffffffffffffffffffffffffffff021916908373ffffffffffffffffffffffffffffffffffffffff160217905550808273ffffffffffffffffffffffffffffffffffffffff16600073ffffffffffffffffffffffffffffffffffffffff167fddf252ad1be2c89b69c2b068fc378daa952ba7f163c4a11628f55a4df523b3ef60405160405180910390a4611a61600083836001611c39565b5050565b611a6e82611bf2565b611aad576040517f08c379a0000000000000000000000000000000000000000000000000000000008152600401611aa49061346f565b60405180910390fd5b80600660008481526020019081526020016000209081611acd9190612fd1565b507ff8e1a15aba9398e019f0b49df1a4fde98ee17ae345cb5f6b5e2c27f5033e8ce782604051611afd9190612581565b60405180910390a15050565b606060405180602001604052806000815250905090565b6060611b2b82611132565b6000611b35611b09565b90506000815111611b555760405180602001604052806000815250611b80565b80611b5f84611f14565b604051602001611b709291906130df565b6040516020818303038152906040525b915050919050565b60007f01ffc9a7000000000000000000000000000000000000000000000000000000007bffffffffffffffffffffffffffffffffffffffffffffffffffffffff1916827bffffffffffffffffffffffffffffffffffffffffffffffffffffffff1916149050919050565b60008073ffffffffffffffffffffffffffffffffffffffff16611c14836115cc565b73ffffffffffffffffffffffffffffffffffffffff1614159050919050565b50505050565b50505050565b6000611c4a82610868565b9050611c5a816000846001611c33565b611c6382610868565b90506004600083815260200190815260200160002060006101000a81549073ffffffffffffffffffffffffffffffffffffffff02191690556001600360008373ffffffffffffffffffffffffffffffffffffffff1673ffffffffffffffffffffffffffffffffffffffff168152602001908152602001600020600082825403925050819055506002600083815260200190815260200160002060006101000a81549073ffffffffffffffffffffffffffffffffffffffff021916905581600073ffffffffffffffffffffffffffffffffffffffff168273ffffffffffffffffffffffffffffffffffffffff167fddf252ad1be2c89b69c2b068fc378daa952ba7f163c4a11628f55a4df523b3ef60405160405180910390a4611d89816000846001611c39565b5050565b6000611dae8473ffffffffffffffffffffffffffffffffffffffff16611fe2565b15611f07578373ffffffffffffffffffffffffffffffffffffffff1663150b7a02611dd761117d565b8786866040518563ffffffff1660e01b8152600401611df994939291906134e4565b6020604051808303816000875af1925050508015611e3557506040513d601f19601f82011682018060405250810190611e329190613545565b60015b611eb7573d8060008114611e65576040519150601f19603f3d011682016040523d82523d6000602084013e611e6a565b606091505b506000815103611eaf576040517f08c379a0000000000000000000000000000000000000000000000000000000008152600401611ea690613305565b60405180910390fd5b805181602001fd5b63150b7a0260e01b7bffffffffffffffffffffffffffffffffffffffffffffffffffffffff1916817bffffffffffffffffffffffffffffffffffffffffffffffffffffffff191614915050611f0c565b600190505b949350505050565b606060006001611f2384612005565b01905060008167ffffffffffffffff811115611f4257611f41612706565b5b6040519080825280601f01601f191660200182016040528015611f745781602001600182028036833780820191505090505b509050600082602001820190505b600115611fd7578080600190039150507f3031323334353637383961626364656600000000000000000000000000000000600a86061a8153600a8581611fcb57611fca613572565b5b04945060008503611f82575b819350505050919050565b6000808273ffffffffffffffffffffffffffffffffffffffff163b119050919050565b600080600090507a184f03e93ff9f4daa797ed6e38ed64bf6a1f0100000000000000008310612063577a184f03e93ff9f4daa797ed6e38ed64bf6a1f010000000000000000838161205957612058613572565b5b0492506040810190505b6d04ee2d6d415b85acef810000000083106120a0576d04ee2d6d415b85acef8100000000838161209657612095613572565b5b0492506020810190505b662386f26fc1000083106120cf57662386f26fc1000083816120c5576120c4613572565b5b0492506010810190505b6305f5e10083106120f8576305f5e10083816120ee576120ed613572565b5b0492506008810190505b612710831061211d57612710838161211357612112613572565b5b0492506004810190505b60648310612140576064838161213657612135613572565b5b0492506002810190505b600a831061214f576001810190505b80915050919050565b6040518060800160405280600073ffffffffffffffffffffffffffffffffffffffff1681526020016060815260200160608152602001600081525090565b5080546121a290612a7f565b6000825580601f106121b457506121d3565b601f0160209004906000526020600020908101906121d291906121d6565b5b50565b5b808211156121ef5760008160009055506001016121d7565b5090565b6000604051905090565b600080fd5b600080fd5b60007fffffffff0000000000000000000000000000000000000000000000000000000082169050919050565b61223c81612207565b811461224757600080fd5b50565b60008135905061225981612233565b92915050565b600060208284031215612275576122746121fd565b5b60006122838482850161224a565b91505092915050565b60008115159050919050565b6122a18161228c565b82525050565b60006020820190506122bc6000830184612298565b92915050565b600081519050919050565b600082825260208201905092915050565b60005b838110156122fc5780820151818401526020810190506122e1565b60008484015250505050565b6000601f19601f8301169050919050565b6000612324826122c2565b61232e81856122cd565b935061233e8185602086016122de565b61234781612308565b840191505092915050565b6000602082019050818103600083015261236c8184612319565b905092915050565b6000819050919050565b61238781612374565b811461239257600080fd5b50565b6000813590506123a48161237e565b92915050565b6000602082840312156123c0576123bf6121fd565b5b60006123ce84828501612395565b91505092915050565b600073ffffffffffffffffffffffffffffffffffffffff82169050919050565b6000612402826123d7565b9050919050565b612412816123f7565b82525050565b600060208201905061242d6000830184612409565b92915050565b61243c816123f7565b811461244757600080fd5b50565b60008135905061245981612433565b92915050565b60008060408385031215612476576124756121fd565b5b60006124848582860161244a565b925050602061249585828601612395565b9150509250929050565b6000806000606084860312156124b8576124b76121fd565b5b60006124c68682870161244a565b93505060206124d78682870161244a565b92505060406124e886828701612395565b9150509250925092565b6124fb81612374565b82525050565b60006080820190506125166000830187612409565b81810360208301526125288186612319565b9050818103604083015261253c8185612319565b905061254b60608301846124f2565b95945050505050565b60006020828403121561256a576125696121fd565b5b60006125788482850161244a565b91505092915050565b600060208201905061259660008301846124f2565b92915050565b6125a5816123f7565b82525050565b600082825260208201905092915050565b60006125c7826122c2565b6125d181856125ab565b93506125e18185602086016122de565b6125ea81612308565b840191505092915050565b6125fe81612374565b82525050565b600060808301600083015161261c600086018261259c565b506020830151848203602086015261263482826125bc565b9150506040830151848203604086015261264e82826125bc565b915050606083015161266360608601826125f5565b508091505092915050565b600060208201905081810360008301526126888184612604565b905092915050565b6126998161228c565b81146126a457600080fd5b50565b6000813590506126b681612690565b92915050565b600080604083850312156126d3576126d26121fd565b5b60006126e18582860161244a565b92505060206126f2858286016126a7565b9150509250929050565b600080fd5b600080fd5b7f4e487b7100000000000000000000000000000000000000000000000000000000600052604160045260246000fd5b61273e82612308565b810181811067ffffffffffffffff8211171561275d5761275c612706565b5b80604052505050565b60006127706121f3565b905061277c8282612735565b919050565b600067ffffffffffffffff82111561279c5761279b612706565b5b6127a582612308565b9050602081019050919050565b82818337600083830152505050565b60006127d46127cf84612781565b612766565b9050828152602081018484840111156127f0576127ef612701565b5b6127fb8482856127b2565b509392505050565b600082601f830112612818576128176126fc565b5b81356128288482602086016127c1565b91505092915050565b6000806000806080858703121561284b5761284a6121fd565b5b60006128598782880161244a565b945050602061286a8782880161244a565b935050604061287b87828801612395565b925050606085013567ffffffffffffffff81111561289c5761289b612202565b5b6128a887828801612803565b91505092959194509250565b600067ffffffffffffffff8211156128cf576128ce612706565b5b6128d882612308565b9050602081019050919050565b60006128f86128f3846128b4565b612766565b90508281526020810184848401111561291457612913612701565b5b61291f8482856127b2565b509392505050565b600082601f83011261293c5761293b6126fc565b5b813561294c8482602086016128e5565b91505092915050565b6000806000806080858703121561296f5761296e6121fd565b5b600061297d8782880161244a565b945050602085013567ffffffffffffffff81111561299e5761299d612202565b5b6129aa87828801612927565b935050604085013567ffffffffffffffff8111156129cb576129ca612202565b5b6129d787828801612927565b925050606085013567ffffffffffffffff8111156129f8576129f7612202565b5b612a0487828801612927565b91505092959194509250565b60008060408385031215612a2757612a266121fd565b5b6000612a358582860161244a565b9250506020612a468582860161244a565b9150509250929050565b7f4e487b7100000000000000000000000000000000000000000000000000000000600052602260045260246000fd5b60006002820490506001821680612a9757607f821691505b602082108103612aaa57612aa9612a50565b5b50919050565b7f4552433732313a20617070726f76616c20746f2063757272656e74206f776e6560008201527f7200000000000000000000000000000000000000000000000000000000000000602082015250565b6000612b0c6021836122cd565b9150612b1782612ab0565b604082019050919050565b60006020820190508181036000830152612b3b81612aff565b9050919050565b7f4552433732313a20617070726f76652063616c6c6572206973206e6f7420746f60008201527f6b656e206f776e6572206f7220617070726f76656420666f7220616c6c000000602082015250565b6000612b9e603d836122cd565b9150612ba982612b42565b604082019050919050565b60006020820190508181036000830152612bcd81612b91565b9050919050565b7f4552433732313a2063616c6c6572206973206e6f7420746f6b656e206f776e6560008201527f72206f7220617070726f76656400000000000000000000000000000000000000602082015250565b6000612c30602d836122cd565b9150612c3b82612bd4565b604082019050919050565b60006020820190508181036000830152612c5f81612c23565b9050919050565b7f4552433732313a20696e76616c696420746f6b656e2049440000000000000000600082015250565b6000612c9c6018836122cd565b9150612ca782612c66565b602082019050919050565b60006020820190508181036000830152612ccb81612c8f565b9050919050565b7f596f7520617265206e6f7420746865206f776e6572206f66207468697320746f60008201527f6b656e0000000000000000000000000000000000000000000000000000000000602082015250565b6000612d2e6023836122cd565b9150612d3982612cd2565b604082019050919050565b60006020820190508181036000830152612d5d81612d21565b9050919050565b7f4552433732313a2061646472657373207a65726f206973206e6f74206120766160008201527f6c6964206f776e65720000000000000000000000000000000000000000000000602082015250565b6000612dc06029836122cd565b9150612dcb82612d64565b604082019050919050565b60006020820190508181036000830152612def81612db3565b9050919050565b7f4e487b7100000000000000000000000000000000000000000000000000000000600052603260045260246000fd5b60008190508160005260206000209050919050565b60006020601f8301049050919050565b600082821b905092915050565b600060088302612e877fffffffffffffffffffffffffffffffffffffffffffffffffffffffffffffffff82612e4a565b612e918683612e4a565b95508019841693508086168417925050509392505050565b6000819050919050565b6000612ece612ec9612ec484612374565b612ea9565b612374565b9050919050565b6000819050919050565b612ee883612eb3565b612efc612ef482612ed5565b848454612e57565b825550505050565b600090565b612f11612f04565b612f1c818484612edf565b505050565b5b81811015612f4057612f35600082612f09565b600181019050612f22565b5050565b601f821115612f8557612f5681612e25565b612f5f84612e3a565b81016020851015612f6e578190505b612f82612f7a85612e3a565b830182612f21565b50505b505050565b600082821c905092915050565b6000612fa860001984600802612f8a565b1980831691505092915050565b6000612fc18383612f97565b9150826002028217905092915050565b612fda826122c2565b67ffffffffffffffff811115612ff357612ff2612706565b5b612ffd8254612a7f565b613008828285612f44565b600060209050601f83116001811461303b5760008415613029578287015190505b6130338582612fb5565b86555061309b565b601f19841661304986612e25565b60005b828110156130715784890151825560018201915060208501945060208101905061304c565b8683101561308e578489015161308a601f891682612f97565b8355505b6001600288020188555050505b505050505050565b600081905092915050565b60006130b9826122c2565b6130c381856130a3565b93506130d38185602086016122de565b80840191505092915050565b60006130eb82856130ae565b91506130f782846130ae565b91508190509392505050565b7f4552433732313a207472616e736665722066726f6d20696e636f72726563742060008201527f6f776e6572000000000000000000000000000000000000000000000000000000602082015250565b600061315f6025836122cd565b915061316a82613103565b604082019050919050565b6000602082019050818103600083015261318e81613152565b9050919050565b7f4552433732313a207472616e7366657220746f20746865207a65726f2061646460008201527f7265737300000000000000000000000000000000000000000000000000000000602082015250565b60006131f16024836122cd565b91506131fc82613195565b604082019050919050565b60006020820190508181036000830152613220816131e4565b9050919050565b7f4552433732313a20617070726f766520746f2063616c6c657200000000000000600082015250565b600061325d6019836122cd565b915061326882613227565b602082019050919050565b6000602082019050818103600083015261328c81613250565b9050919050565b7f4552433732313a207472616e7366657220746f206e6f6e20455243373231526560008201527f63656976657220696d706c656d656e7465720000000000000000000000000000602082015250565b60006132ef6032836122cd565b91506132fa82613293565b604082019050919050565b6000602082019050818103600083015261331e816132e2565b9050919050565b7f4552433732313a206d696e7420746f20746865207a65726f2061646472657373600082015250565b600061335b6020836122cd565b915061336682613325565b602082019050919050565b6000602082019050818103600083015261338a8161334e565b9050919050565b7f4552433732313a20746f6b656e20616c7265616479206d696e74656400000000600082015250565b60006133c7601c836122cd565b91506133d282613391565b602082019050919050565b600060208201905081810360008301526133f6816133ba565b9050919050565b7f45524337323155524953746f726167653a2055524920736574206f66206e6f6e60008201527f6578697374656e7420746f6b656e000000000000000000000000000000000000602082015250565b6000613459602e836122cd565b9150613464826133fd565b604082019050919050565b600060208201905081810360008301526134888161344c565b9050919050565b600081519050919050565b600082825260208201905092915050565b60006134b68261348f565b6134c0818561349a565b93506134d08185602086016122de565b6134d981612308565b840191505092915050565b60006080820190506134f96000830187612409565b6135066020830186612409565b61351360408301856124f2565b818103606083015261352581846134ab565b905095945050505050565b60008151905061353f81612233565b92915050565b60006020828403121561355b5761355a6121fd565b5b600061356984828501613530565b91505092915050565b7f4e487b7100000000000000000000000000000000000000000000000000000000600052601260045260246000fdfea264697066735822122041a9e6915ff74056114cb1c0beed2c69325ed494671fd08aad865c868b15e7a764736f6c63430008180033",
  "linkReferences": {},
  "deployedLinkReferences": {}
}