{
  "_format": "hh-sol-artifact-1",
  "contractName": "NFT_ERC721",
  "sourceName": "contracts/NFT_ERC721.sol",
  "abi": [
    {
      "inputs": [],
      "stateMutability": "nonpayable",
      "type": "constructor"
    },
    {
      "anonymous": false,
      "inputs": [
        {
          "indexed": true,
          "internalType": "address",
          "name": "owner",
          "type": "address"
        },
        {
          "indexed": true,
          "internalType": "address",
          "name": "approved",
          "type": "address"
        },
        {
          "indexed": true,
          "internalType": "uint256",
          "name": "tokenId",
          "type": "uint256"
        }
      ],
      "name": "Approval",
      "type": "event"
    },
    {
      "anonymous": false,
      "inputs": [
        {
          "indexed": true,
          "internalType": "address",
          "name": "owner",
          "type": "address"
        },
        {
          "indexed": true,
          "internalType": "address",
          "name": "operator",
          "type": "address"
        },
        {
          "indexed": false,
          "internalType": "bool",
          "name": "approved",
          "type": "bool"
        }
      ],
      "name": "ApprovalForAll",
      "type": "event"
    },
    {
      "anonymous": false,
      "inputs": [
        {
          "indexed": false,
          "internalType": "uint256",
          "name": "_fromTokenId",
          "type": "uint256"
        },
        {
          "indexed": false,
          "internalType": "uint256",
          "name": "_toTokenId",
          "type": "uint256"
        }
      ],
      "name": "BatchMetadataUpdate",
      "type": "event"
    },
    {
      "anonymous": false,
      "inputs": [
        {
          "indexed": false,
          "internalType": "uint256",
          "name": "_tokenId",
          "type": "uint256"
        }
      ],
      "name": "MetadataUpdate",
      "type": "event"
    },
    {
      "anonymous": false,
      "inputs": [
        {
          "indexed": true,
          "internalType": "address",
          "name": "from",
          "type": "address"
        },
        {
          "indexed": true,
          "internalType": "address",
          "name": "to",
          "type": "address"
        },
        {
          "indexed": true,
          "internalType": "uint256",
          "name": "tokenId",
          "type": "uint256"
        }
      ],
      "name": "Transfer",
      "type": "event"
    },
    {
      "inputs": [
        {
          "internalType": "address",
          "name": "to",
          "type": "address"
        },
        {
          "internalType": "uint256",
          "name": "tokenId",
          "type": "uint256"
        }
      ],
      "name": "approve",
      "outputs": [],
      "stateMutability": "nonpayable",
      "type": "function"
    },
    {
      "inputs": [
        {
          "internalType": "address",
          "name": "_useraddr",
          "type": "address"
        },
        {
          "internalType": "string",
          "name": "username",
          "type": "string"
        },
        {
          "internalType": "string",
          "name": "_email",
          "type": "string"
        },
        {
          "internalType": "string",
          "name": "tokenURI",
          "type": "string"
        }
      ],
      "name": "awardDoc",
      "outputs": [
        {
          "internalType": "uint256",
          "name": "",
          "type": "uint256"
        }
      ],
      "stateMutability": "nonpayable",
      "type": "function"
    },
    {
      "inputs": [
        {
          "internalType": "address",
          "name": "owner",
          "type": "address"
        }
      ],
      "name": "balanceOf",
      "outputs": [
        {
          "internalType": "uint256",
          "name": "",
          "type": "uint256"
        }
      ],
      "stateMutability": "view",
      "type": "function"
    },
    {
      "inputs": [
        {
          "internalType": "uint256",
          "name": "_tokenId",
          "type": "uint256"
        }
      ],
      "name": "cancelDoc",
      "outputs": [],
      "stateMutability": "nonpayable",
      "type": "function"
    },
    {
      "inputs": [
        {
          "internalType": "uint256",
          "name": "tokenId",
          "type": "uint256"
        }
      ],
      "name": "getApproved",
      "outputs": [
        {
          "internalType": "address",
          "name": "",
          "type": "address"
        }
      ],
      "stateMutability": "view",
      "type": "function"
    },
    {
      "inputs": [
        {
          "internalType": "address",
          "name": "owner",
          "type": "address"
        },
        {
          "internalType": "address",
          "name": "operator",
          "type": "address"
        }
      ],
      "name": "isApprovedForAll",
      "outputs": [
        {
          "internalType": "bool",
          "name": "",
          "type": "bool"
        }
      ],
      "stateMutability": "view",
      "type": "function"
    },
    {
      "inputs": [],
      "name": "name",
      "outputs": [
        {
          "internalType": "string",
          "name": "",
          "type": "string"
        }
      ],
      "stateMutability": "view",
      "type": "function"
    },
    {
      "inputs": [
        {
          "internalType": "uint256",
          "name": "tokenId",
          "type": "uint256"
        }
      ],
      "name": "ownerOf",
      "outputs": [
        {
          "internalType": "address",
          "name": "",
          "type": "address"
        }
      ],
      "stateMutability": "view",
      "type": "function"
    },
    {
      "inputs": [
        {
          "internalType": "address",
          "name": "from",
          "type": "address"
        },
        {
          "internalType": "address",
          "name": "to",
          "type": "address"
        },
        {
          "internalType": "uint256",
          "name": "tokenId",
          "type": "uint256"
        }
      ],
      "name": "safeTransferFrom",
      "outputs": [],
      "stateMutability": "nonpayable",
      "type": "function"
    },
    {
      "inputs": [
        {
          "internalType": "address",
          "name": "from",
          "type": "address"
        },
        {
          "internalType": "address",
          "name": "to",
          "type": "address"
        },
        {
          "internalType": "uint256",
          "name": "tokenId",
          "type": "uint256"
        },
        {
          "internalType": "bytes",
          "name": "data",
          "type": "bytes"
        }
      ],
      "name": "safeTransferFrom",
      "outputs": [],
      "stateMutability": "nonpayable",
      "type": "function"
    },
    {
      "inputs": [
        {
          "internalType": "address",
          "name": "operator",
          "type": "address"
        },
        {
          "internalType": "bool",
          "name": "approved",
          "type": "bool"
        }
      ],
      "name": "setApprovalForAll",
      "outputs": [],
      "stateMutability": "nonpayable",
      "type": "function"
    },
    {
      "inputs": [
        {
          "internalType": "bytes4",
          "name": "interfaceId",
          "type": "bytes4"
        }
      ],
      "name": "supportsInterface",
      "outputs": [
        {
          "internalType": "bool",
          "name": "",
          "type": "bool"
        }
      ],
      "stateMutability": "view",
      "type": "function"
    },
    {
      "inputs": [],
      "name": "symbol",
      "outputs": [
        {
          "internalType": "string",
          "name": "",
          "type": "string"
        }
      ],
      "stateMutability": "view",
      "type": "function"
    },
    {
      "inputs": [
        {
          "internalType": "uint256",
          "name": "tokenId",
          "type": "uint256"
        }
      ],
      "name": "tokenURI",
      "outputs": [
        {
          "internalType": "string",
          "name": "",
          "type": "string"
        }
      ],
      "stateMutability": "view",
      "type": "function"
    },
    {
      "inputs": [
        {
          "internalType": "address",
          "name": "_to",
          "type": "address"
        },
        {
          "internalType": "uint256",
          "name": "_tokenId",
          "type": "uint256"
        }
      ],
      "name": "transferDoc",
      "outputs": [],
      "stateMutability": "nonpayable",
      "type": "function"
    },
    {
      "inputs": [
        {
          "internalType": "address",
          "name": "from",
          "type": "address"
        },
        {
          "internalType": "address",
          "name": "to",
          "type": "address"
        },
        {
          "internalType": "uint256",
          "name": "tokenId",
          "type": "uint256"
        }
      ],
      "name": "transferFrom",
      "outputs": [],
      "stateMutability": "nonpayable",
      "type": "function"
    },
    {
      "inputs": [
        {
          "internalType": "address",
          "name": "",
          "type": "address"
        },
        {
          "internalType": "uint256",
          "name": "",
          "type": "uint256"
        }
      ],
      "name": "users",
      "outputs": [
        {
          "internalType": "address",
          "name": "_useraddr",
          "type": "address"
        },
        {
          "internalType": "string",
          "name": "username",
          "type": "string"
        },
        {
          "internalType": "string",
          "name": "email",
          "type": "string"
        },
        {
          "internalType": "uint256",
          "name": "_tokenId",
          "type": "uint256"
        }
      ],
      "stateMutability": "view",
      "type": "function"
    },
    {
      "inputs": [
        {
          "internalType": "uint256",
          "name": "_tokenId",
          "type": "uint256"
        }
      ],
      "name": "viewDoc",
      "outputs": [
        {
          "internalType": "string",
          "name": "",
          "type": "string"
        }
      ],
      "stateMutability": "view",
      "type": "function"
    },
    {
      "inputs": [
        {
          "internalType": "uint256",
          "name": "_tokenId",
          "type": "uint256"
        }
      ],
      "name": "viewOwner",
      "outputs": [
        {
          "internalType": "address",
          "name": "",
          "type": "address"
        }
      ],
      "stateMutability": "view",
      "type": "function"
    }
  ],
  "bytecode": "0x60806040523480156200001157600080fd5b506040518060400160405280600a81526020017f4e46545f455243373231000000000000000000000000000000000000000000008152506040518060400160405280600381526020017f4e4654000000000000000000000000000000000000000000000000000000000081525081600090816200008f919062000324565b508060019081620000a1919062000324565b5050506200040b565b600081519050919050565b7f4e487b7100000000000000000000000000000000000000000000000000000000600052604160045260246000fd5b7f4e487b7100000000000000000000000000000000000000000000000000000000600052602260045260246000fd5b600060028204905060018216806200012c57607f821691505b602082108103620001425762000141620000e4565b5b50919050565b60008190508160005260206000209050919050565b60006020601f8301049050919050565b600082821b905092915050565b600060088302620001ac7fffffffffffffffffffffffffffffffffffffffffffffffffffffffffffffffff826200016d565b620001b886836200016d565b95508019841693508086168417925050509392505050565b6000819050919050565b6000819050919050565b600062000205620001ff620001f984620001d0565b620001da565b620001d0565b9050919050565b6000819050919050565b6200022183620001e4565b6200023962000230826200020c565b8484546200017a565b825550505050565b600090565b6200025062000241565b6200025d81848462000216565b505050565b5b8181101562000285576200027960008262000246565b60018101905062000263565b5050565b601f821115620002d4576200029e8162000148565b620002a9846200015d565b81016020851015620002b9578190505b620002d1620002c8856200015d565b83018262000262565b50505b505050565b600082821c905092915050565b6000620002f960001984600802620002d9565b1980831691505092915050565b6000620003148383620002e6565b9150826002028217905092915050565b6200032f82620000aa565b67ffffffffffffffff8111156200034b576200034a620000b5565b5b62000357825462000113565b6200036482828562000289565b600060209050601f8311600181146200039c576000841562000387578287015190505b62000393858262000306565b86555062000403565b601f198416620003ac8662000148565b60005b82811015620003d657848901518255600182019150602085019450602081019050620003af565b86831015620003f65784890151620003f2601f891682620002e6565b8355505b6001600288020188555050505b505050505050565b61327c806200041b6000396000f3fe608060405234801561001057600080fd5b50600436106101215760003560e01c80637000ba65116100ad578063b88d4fde11610071578063b88d4fde14610341578063c078f0591461035d578063c87b56dd1461038d578063e4024d41146103bd578063e985e9c5146103d957610121565b80637000ba651461028b57806370a08231146102a757806392eb104c146102d757806395d89b4114610307578063a22cb4651461032557610121565b806323b872dd116100f457806323b872dd146101c05780633e4242da146101dc57806342842e0e1461020c57806354a02f9e146102285780636352211e1461025b57610121565b806301ffc9a71461012657806306fdde0314610156578063081812fc14610174578063095ea7b3146101a4575b600080fd5b610140600480360381019061013b9190612027565b610409565b60405161014d919061206f565b60405180910390f35b61015e61046a565b60405161016b919061211a565b60405180910390f35b61018e60048036038101906101899190612172565b6104fc565b60405161019b91906121e0565b60405180910390f35b6101be60048036038101906101b99190612227565b610542565b005b6101da60048036038101906101d59190612267565b610659565b005b6101f660048036038101906101f19190612172565b6106b9565b604051610203919061211a565b60405180910390f35b61022660048036038101906102219190612267565b6106cb565b005b610242600480360381019061023d9190612227565b6106eb565b60405161025294939291906122c9565b60405180910390f35b61027560048036038101906102709190612172565b610868565b60405161028291906121e0565b60405180910390f35b6102a560048036038101906102a09190612172565b6108ee565b005b6102c160048036038101906102bc919061231c565b610970565b6040516102ce9190612349565b60405180910390f35b6102f160048036038101906102ec9190612172565b610a27565b6040516102fe91906121e0565b60405180910390f35b61030f610a39565b60405161031c919061211a565b60405180910390f35b61033f600480360381019061033a9190612390565b610acb565b005b61035b60048036038101906103569190612505565b610ae1565b005b61037760048036038101906103729190612629565b610b43565b6040516103849190612349565b60405180910390f35b6103a760048036038101906103a29190612172565b610ca1565b6040516103b4919061211a565b60405180910390f35b6103d760048036038101906103d29190612227565b610db3565b005b6103f360048036038101906103ee91906126e4565b610dc2565b604051610400919061206f565b60405180910390f35b6000634906490660e01b7bffffffffffffffffffffffffffffffffffffffffffffffffffffffff1916827bffffffffffffffffffffffffffffffffffffffffffffffffffffffff19161480610463575061046282610e56565b5b9050919050565b60606000805461047990612753565b80601f01602080910402602001604051908101604052809291908181526020018280546104a590612753565b80156104f25780601f106104c7576101008083540402835291602001916104f2565b820191906000526020600020905b8154815290600101906020018083116104d557829003601f168201915b5050505050905090565b600061050782610f38565b6004600083815260200190815260200160002060009054906101000a900473ffffffffffffffffffffffffffffffffffffffff169050919050565b600061054d82610868565b90508073ffffffffffffffffffffffffffffffffffffffff168373ffffffffffffffffffffffffffffffffffffffff16036105bd576040517f08c379a00000000000000000000000000000000000000000000000000000000081526004016105b4906127f6565b60405180910390fd5b8073ffffffffffffffffffffffffffffffffffffffff166105dc610f83565b73ffffffffffffffffffffffffffffffffffffffff16148061060b575061060a81610605610f83565b610dc2565b5b61064a576040517f08c379a000000000000000000000000000000000000000000000000000000000815260040161064190612888565b60405180910390fd5b6106548383610f8b565b505050565b61066a610664610f83565b82611044565b6106a9576040517f08c379a00000000000000000000000000000000000000000000000000000000081526004016106a09061291a565b60405180910390fd5b6106b48383836110d9565b505050565b60606106c482610ca1565b9050919050565b6106e683838360405180602001604052806000815250610ae1565b505050565b6008602052816000526040600020818154811061070757600080fd5b9060005260206000209060040201600091509150508060000160009054906101000a900473ffffffffffffffffffffffffffffffffffffffff169080600101805461075190612753565b80601f016020809104026020016040519081016040528092919081815260200182805461077d90612753565b80156107ca5780601f1061079f576101008083540402835291602001916107ca565b820191906000526020600020905b8154815290600101906020018083116107ad57829003601f168201915b5050505050908060020180546107df90612753565b80601f016020809104026020016040519081016040528092919081815260200182805461080b90612753565b80156108585780601f1061082d57610100808354040283529160200191610858565b820191906000526020600020905b81548152906001019060200180831161083b57829003601f168201915b5050505050908060030154905084565b600080610874836113d2565b9050600073ffffffffffffffffffffffffffffffffffffffff168173ffffffffffffffffffffffffffffffffffffffff16036108e5576040517f08c379a00000000000000000000000000000000000000000000000000000000081526004016108dc90612986565b60405180910390fd5b80915050919050565b3373ffffffffffffffffffffffffffffffffffffffff1661090e82610868565b73ffffffffffffffffffffffffffffffffffffffff1614610964576040517f08c379a000000000000000000000000000000000000000000000000000000000815260040161095b90612a18565b60405180910390fd5b61096d8161140f565b50565b60008073ffffffffffffffffffffffffffffffffffffffff168273ffffffffffffffffffffffffffffffffffffffff16036109e0576040517f08c379a00000000000000000000000000000000000000000000000000000000081526004016109d790612aaa565b60405180910390fd5b600360008373ffffffffffffffffffffffffffffffffffffffff1673ffffffffffffffffffffffffffffffffffffffff168152602001908152602001600020549050919050565b6000610a3282610868565b9050919050565b606060018054610a4890612753565b80601f0160208091040260200160405190810160405280929190818152602001828054610a7490612753565b8015610ac15780601f10610a9657610100808354040283529160200191610ac1565b820191906000526020600020905b815481529060010190602001808311610aa457829003601f168201915b5050505050905090565b610add610ad6610f83565b8383611462565b5050565b610af2610aec610f83565b83611044565b610b31576040517f08c379a0000000000000000000000000000000000000000000000000000000008152600401610b289061291a565b60405180910390fd5b610b3d848484846115ce565b50505050565b6000610b4f600761162a565b6000610b5b6007611640565b9050610b67868261164e565b610b71818461186b565b600060405180608001604052808873ffffffffffffffffffffffffffffffffffffffff168152602001878152602001868152602001838152509050600860008873ffffffffffffffffffffffffffffffffffffffff1673ffffffffffffffffffffffffffffffffffffffff16815260200190815260200160002081908060018154018082558091505060019003906000526020600020906004020160009091909190915060008201518160000160006101000a81548173ffffffffffffffffffffffffffffffffffffffff021916908373ffffffffffffffffffffffffffffffffffffffff1602179055506020820151816001019081610c719190612c76565b506040820151816002019081610c879190612c76565b506060820151816003015550508192505050949350505050565b6060610cac82610f38565b6000600660008481526020019081526020016000208054610ccc90612753565b80601f0160208091040260200160405190810160405280929190818152602001828054610cf890612753565b8015610d455780601f10610d1a57610100808354040283529160200191610d45565b820191906000526020600020905b815481529060010190602001808311610d2857829003601f168201915b505050505090506000610d5661190f565b90506000815103610d6b578192505050610dae565b600082511115610da0578082604051602001610d88929190612d84565b60405160208183030381529060405292505050610dae565b610da984611926565b925050505b919050565b610dbe3383836106cb565b5050565b6000600560008473ffffffffffffffffffffffffffffffffffffffff1673ffffffffffffffffffffffffffffffffffffffff16815260200190815260200160002060008373ffffffffffffffffffffffffffffffffffffffff1673ffffffffffffffffffffffffffffffffffffffff16815260200190815260200160002060009054906101000a900460ff16905092915050565b60007f80ac58cd000000000000000000000000000000000000000000000000000000007bffffffffffffffffffffffffffffffffffffffffffffffffffffffff1916827bffffffffffffffffffffffffffffffffffffffffffffffffffffffff19161480610f2157507f5b5e139f000000000000000000000000000000000000000000000000000000007bffffffffffffffffffffffffffffffffffffffffffffffffffffffff1916827bffffffffffffffffffffffffffffffffffffffffffffffffffffffff1916145b80610f315750610f308261198e565b5b9050919050565b610f41816119f8565b610f80576040517f08c379a0000000000000000000000000000000000000000000000000000000008152600401610f7790612986565b60405180910390fd5b50565b600033905090565b816004600083815260200190815260200160002060006101000a81548173ffffffffffffffffffffffffffffffffffffffff021916908373ffffffffffffffffffffffffffffffffffffffff160217905550808273ffffffffffffffffffffffffffffffffffffffff16610ffe83610868565b73ffffffffffffffffffffffffffffffffffffffff167f8c5be1e5ebec7d5bd14f71427d1e84f3dd0314c0f7b2291e5b200ac8c7c3b92560405160405180910390a45050565b60008061105083610868565b90508073ffffffffffffffffffffffffffffffffffffffff168473ffffffffffffffffffffffffffffffffffffffff16148061109257506110918185610dc2565b5b806110d057508373ffffffffffffffffffffffffffffffffffffffff166110b8846104fc565b73ffffffffffffffffffffffffffffffffffffffff16145b91505092915050565b8273ffffffffffffffffffffffffffffffffffffffff166110f982610868565b73ffffffffffffffffffffffffffffffffffffffff161461114f576040517f08c379a000000000000000000000000000000000000000000000000000000000815260040161114690612e1a565b60405180910390fd5b600073ffffffffffffffffffffffffffffffffffffffff168273ffffffffffffffffffffffffffffffffffffffff16036111be576040517f08c379a00000000000000000000000000000000000000000000000000000000081526004016111b590612eac565b60405180910390fd5b6111cb8383836001611a39565b8273ffffffffffffffffffffffffffffffffffffffff166111eb82610868565b73ffffffffffffffffffffffffffffffffffffffff1614611241576040517f08c379a000000000000000000000000000000000000000000000000000000000815260040161123890612e1a565b60405180910390fd5b6004600082815260200190815260200160002060006101000a81549073ffffffffffffffffffffffffffffffffffffffff02191690556001600360008573ffffffffffffffffffffffffffffffffffffffff1673ffffffffffffffffffffffffffffffffffffffff168152602001908152602001600020600082825403925050819055506001600360008473ffffffffffffffffffffffffffffffffffffffff1673ffffffffffffffffffffffffffffffffffffffff16815260200190815260200160002060008282540192505081905550816002600083815260200190815260200160002060006101000a81548173ffffffffffffffffffffffffffffffffffffffff021916908373ffffffffffffffffffffffffffffffffffffffff160217905550808273ffffffffffffffffffffffffffffffffffffffff168473ffffffffffffffffffffffffffffffffffffffff167fddf252ad1be2c89b69c2b068fc378daa952ba7f163c4a11628f55a4df523b3ef60405160405180910390a46113cd8383836001611a3f565b505050565b60006002600083815260200190815260200160002060009054906101000a900473ffffffffffffffffffffffffffffffffffffffff169050919050565b61141881611a45565b600060066000838152602001908152602001600020805461143890612753565b90501461145f5760066000828152602001908152602001600020600061145e9190611f5e565b5b50565b8173ffffffffffffffffffffffffffffffffffffffff168373ffffffffffffffffffffffffffffffffffffffff16036114d0576040517f08c379a00000000000000000000000000000000000000000000000000000000081526004016114c790612f18565b60405180910390fd5b80600560008573ffffffffffffffffffffffffffffffffffffffff1673ffffffffffffffffffffffffffffffffffffffff16815260200190815260200160002060008473ffffffffffffffffffffffffffffffffffffffff1673ffffffffffffffffffffffffffffffffffffffff16815260200190815260200160002060006101000a81548160ff0219169083151502179055508173ffffffffffffffffffffffffffffffffffffffff168373ffffffffffffffffffffffffffffffffffffffff167f17307eab39ab6107e8899845ad3d59bd9653f200f220920489ca2b5937696c31836040516115c1919061206f565b60405180910390a3505050565b6115d98484846110d9565b6115e584848484611b93565b611624576040517f08c379a000000000000000000000000000000000000000000000000000000000815260040161161b90612faa565b60405180910390fd5b50505050565b6001816000016000828254019250508190555050565b600081600001549050919050565b600073ffffffffffffffffffffffffffffffffffffffff168273ffffffffffffffffffffffffffffffffffffffff16036116bd576040517f08c379a00000000000000000000000000000000000000000000000000000000081526004016116b490613016565b60405180910390fd5b6116c6816119f8565b15611706576040517f08c379a00000000000000000000000000000000000000000000000000000000081526004016116fd90613082565b60405180910390fd5b611714600083836001611a39565b61171d816119f8565b1561175d576040517f08c379a000000000000000000000000000000000000000000000000000000000815260040161175490613082565b60405180910390fd5b6001600360008473ffffffffffffffffffffffffffffffffffffffff1673ffffffffffffffffffffffffffffffffffffffff16815260200190815260200160002060008282540192505081905550816002600083815260200190815260200160002060006101000a81548173ffffffffffffffffffffffffffffffffffffffff021916908373ffffffffffffffffffffffffffffffffffffffff160217905550808273ffffffffffffffffffffffffffffffffffffffff16600073ffffffffffffffffffffffffffffffffffffffff167fddf252ad1be2c89b69c2b068fc378daa952ba7f163c4a11628f55a4df523b3ef60405160405180910390a4611867600083836001611a3f565b5050565b611874826119f8565b6118b3576040517f08c379a00000000000000000000000000000000000000000000000000000000081526004016118aa90613114565b60405180910390fd5b806006600084815260200190815260200160002090816118d39190612c76565b507ff8e1a15aba9398e019f0b49df1a4fde98ee17ae345cb5f6b5e2c27f5033e8ce7826040516119039190612349565b60405180910390a15050565b606060405180602001604052806000815250905090565b606061193182610f38565b600061193b61190f565b9050600081511161195b5760405180602001604052806000815250611986565b8061196584611d1a565b604051602001611976929190612d84565b6040516020818303038152906040525b915050919050565b60007f01ffc9a7000000000000000000000000000000000000000000000000000000007bffffffffffffffffffffffffffffffffffffffffffffffffffffffff1916827bffffffffffffffffffffffffffffffffffffffffffffffffffffffff1916149050919050565b60008073ffffffffffffffffffffffffffffffffffffffff16611a1a836113d2565b73ffffffffffffffffffffffffffffffffffffffff1614159050919050565b50505050565b50505050565b6000611a5082610868565b9050611a60816000846001611a39565b611a6982610868565b90506004600083815260200190815260200160002060006101000a81549073ffffffffffffffffffffffffffffffffffffffff02191690556001600360008373ffffffffffffffffffffffffffffffffffffffff1673ffffffffffffffffffffffffffffffffffffffff168152602001908152602001600020600082825403925050819055506002600083815260200190815260200160002060006101000a81549073ffffffffffffffffffffffffffffffffffffffff021916905581600073ffffffffffffffffffffffffffffffffffffffff168273ffffffffffffffffffffffffffffffffffffffff167fddf252ad1be2c89b69c2b068fc378daa952ba7f163c4a11628f55a4df523b3ef60405160405180910390a4611b8f816000846001611a3f565b5050565b6000611bb48473ffffffffffffffffffffffffffffffffffffffff16611de8565b15611d0d578373ffffffffffffffffffffffffffffffffffffffff1663150b7a02611bdd610f83565b8786866040518563ffffffff1660e01b8152600401611bff9493929190613189565b6020604051808303816000875af1925050508015611c3b57506040513d601f19601f82011682018060405250810190611c3891906131ea565b60015b611cbd573d8060008114611c6b576040519150601f19603f3d011682016040523d82523d6000602084013e611c70565b606091505b506000815103611cb5576040517f08c379a0000000000000000000000000000000000000000000000000000000008152600401611cac90612faa565b60405180910390fd5b805181602001fd5b63150b7a0260e01b7bffffffffffffffffffffffffffffffffffffffffffffffffffffffff1916817bffffffffffffffffffffffffffffffffffffffffffffffffffffffff191614915050611d12565b600190505b949350505050565b606060006001611d2984611e0b565b01905060008167ffffffffffffffff811115611d4857611d476123da565b5b6040519080825280601f01601f191660200182016040528015611d7a5781602001600182028036833780820191505090505b509050600082602001820190505b600115611ddd578080600190039150507f3031323334353637383961626364656600000000000000000000000000000000600a86061a8153600a8581611dd157611dd0613217565b5b04945060008503611d88575b819350505050919050565b6000808273ffffffffffffffffffffffffffffffffffffffff163b119050919050565b600080600090507a184f03e93ff9f4daa797ed6e38ed64bf6a1f0100000000000000008310611e69577a184f03e93ff9f4daa797ed6e38ed64bf6a1f0100000000000000008381611e5f57611e5e613217565b5b0492506040810190505b6d04ee2d6d415b85acef81000000008310611ea6576d04ee2d6d415b85acef81000000008381611e9c57611e9b613217565b5b0492506020810190505b662386f26fc100008310611ed557662386f26fc100008381611ecb57611eca613217565b5b0492506010810190505b6305f5e1008310611efe576305f5e1008381611ef457611ef3613217565b5b0492506008810190505b6127108310611f23576127108381611f1957611f18613217565b5b0492506004810190505b60648310611f465760648381611f3c57611f3b613217565b5b0492506002810190505b600a8310611f55576001810190505b80915050919050565b508054611f6a90612753565b6000825580601f10611f7c5750611f9b565b601f016020900490600052602060002090810190611f9a9190611f9e565b5b50565b5b80821115611fb7576000816000905550600101611f9f565b5090565b6000604051905090565b600080fd5b600080fd5b60007fffffffff0000000000000000000000000000000000000000000000000000000082169050919050565b61200481611fcf565b811461200f57600080fd5b50565b60008135905061202181611ffb565b92915050565b60006020828403121561203d5761203c611fc5565b5b600061204b84828501612012565b91505092915050565b60008115159050919050565b61206981612054565b82525050565b60006020820190506120846000830184612060565b92915050565b600081519050919050565b600082825260208201905092915050565b60005b838110156120c45780820151818401526020810190506120a9565b60008484015250505050565b6000601f19601f8301169050919050565b60006120ec8261208a565b6120f68185612095565b93506121068185602086016120a6565b61210f816120d0565b840191505092915050565b6000602082019050818103600083015261213481846120e1565b905092915050565b6000819050919050565b61214f8161213c565b811461215a57600080fd5b50565b60008135905061216c81612146565b92915050565b60006020828403121561218857612187611fc5565b5b60006121968482850161215d565b91505092915050565b600073ffffffffffffffffffffffffffffffffffffffff82169050919050565b60006121ca8261219f565b9050919050565b6121da816121bf565b82525050565b60006020820190506121f560008301846121d1565b92915050565b612204816121bf565b811461220f57600080fd5b50565b600081359050612221816121fb565b92915050565b6000806040838503121561223e5761223d611fc5565b5b600061224c85828601612212565b925050602061225d8582860161215d565b9150509250929050565b6000806000606084860312156122805761227f611fc5565b5b600061228e86828701612212565b935050602061229f86828701612212565b92505060406122b08682870161215d565b9150509250925092565b6122c38161213c565b82525050565b60006080820190506122de60008301876121d1565b81810360208301526122f081866120e1565b9050818103604083015261230481856120e1565b905061231360608301846122ba565b95945050505050565b60006020828403121561233257612331611fc5565b5b600061234084828501612212565b91505092915050565b600060208201905061235e60008301846122ba565b92915050565b61236d81612054565b811461237857600080fd5b50565b60008135905061238a81612364565b92915050565b600080604083850312156123a7576123a6611fc5565b5b60006123b585828601612212565b92505060206123c68582860161237b565b9150509250929050565b600080fd5b600080fd5b7f4e487b7100000000000000000000000000000000000000000000000000000000600052604160045260246000fd5b612412826120d0565b810181811067ffffffffffffffff82111715612431576124306123da565b5b80604052505050565b6000612444611fbb565b90506124508282612409565b919050565b600067ffffffffffffffff8211156124705761246f6123da565b5b612479826120d0565b9050602081019050919050565b82818337600083830152505050565b60006124a86124a384612455565b61243a565b9050828152602081018484840111156124c4576124c36123d5565b5b6124cf848285612486565b509392505050565b600082601f8301126124ec576124eb6123d0565b5b81356124fc848260208601612495565b91505092915050565b6000806000806080858703121561251f5761251e611fc5565b5b600061252d87828801612212565b945050602061253e87828801612212565b935050604061254f8782880161215d565b925050606085013567ffffffffffffffff8111156125705761256f611fca565b5b61257c878288016124d7565b91505092959194509250565b600067ffffffffffffffff8211156125a3576125a26123da565b5b6125ac826120d0565b9050602081019050919050565b60006125cc6125c784612588565b61243a565b9050828152602081018484840111156125e8576125e76123d5565b5b6125f3848285612486565b509392505050565b600082601f8301126126105761260f6123d0565b5b81356126208482602086016125b9565b91505092915050565b6000806000806080858703121561264357612642611fc5565b5b600061265187828801612212565b945050602085013567ffffffffffffffff81111561267257612671611fca565b5b61267e878288016125fb565b935050604085013567ffffffffffffffff81111561269f5761269e611fca565b5b6126ab878288016125fb565b925050606085013567ffffffffffffffff8111156126cc576126cb611fca565b5b6126d8878288016125fb565b91505092959194509250565b600080604083850312156126fb576126fa611fc5565b5b600061270985828601612212565b925050602061271a85828601612212565b9150509250929050565b7f4e487b7100000000000000000000000000000000000000000000000000000000600052602260045260246000fd5b6000600282049050600182168061276b57607f821691505b60208210810361277e5761277d612724565b5b50919050565b7f4552433732313a20617070726f76616c20746f2063757272656e74206f776e6560008201527f7200000000000000000000000000000000000000000000000000000000000000602082015250565b60006127e0602183612095565b91506127eb82612784565b604082019050919050565b6000602082019050818103600083015261280f816127d3565b9050919050565b7f4552433732313a20617070726f76652063616c6c6572206973206e6f7420746f60008201527f6b656e206f776e6572206f7220617070726f76656420666f7220616c6c000000602082015250565b6000612872603d83612095565b915061287d82612816565b604082019050919050565b600060208201905081810360008301526128a181612865565b9050919050565b7f4552433732313a2063616c6c6572206973206e6f7420746f6b656e206f776e6560008201527f72206f7220617070726f76656400000000000000000000000000000000000000602082015250565b6000612904602d83612095565b915061290f826128a8565b604082019050919050565b60006020820190508181036000830152612933816128f7565b9050919050565b7f4552433732313a20696e76616c696420746f6b656e2049440000000000000000600082015250565b6000612970601883612095565b915061297b8261293a565b602082019050919050565b6000602082019050818103600083015261299f81612963565b9050919050565b7f596f7520617265206e6f7420746865206f776e6572206f66207468697320746f60008201527f6b656e0000000000000000000000000000000000000000000000000000000000602082015250565b6000612a02602383612095565b9150612a0d826129a6565b604082019050919050565b60006020820190508181036000830152612a31816129f5565b9050919050565b7f4552433732313a2061646472657373207a65726f206973206e6f74206120766160008201527f6c6964206f776e65720000000000000000000000000000000000000000000000602082015250565b6000612a94602983612095565b9150612a9f82612a38565b604082019050919050565b60006020820190508181036000830152612ac381612a87565b9050919050565b60008190508160005260206000209050919050565b60006020601f8301049050919050565b600082821b905092915050565b600060088302612b2c7fffffffffffffffffffffffffffffffffffffffffffffffffffffffffffffffff82612aef565b612b368683612aef565b95508019841693508086168417925050509392505050565b6000819050919050565b6000612b73612b6e612b698461213c565b612b4e565b61213c565b9050919050565b6000819050919050565b612b8d83612b58565b612ba1612b9982612b7a565b848454612afc565b825550505050565b600090565b612bb6612ba9565b612bc1818484612b84565b505050565b5b81811015612be557612bda600082612bae565b600181019050612bc7565b5050565b601f821115612c2a57612bfb81612aca565b612c0484612adf565b81016020851015612c13578190505b612c27612c1f85612adf565b830182612bc6565b50505b505050565b600082821c905092915050565b6000612c4d60001984600802612c2f565b1980831691505092915050565b6000612c668383612c3c565b9150826002028217905092915050565b612c7f8261208a565b67ffffffffffffffff811115612c9857612c976123da565b5b612ca28254612753565b612cad828285612be9565b600060209050601f831160018114612ce05760008415612cce578287015190505b612cd88582612c5a565b865550612d40565b601f198416612cee86612aca565b60005b82811015612d1657848901518255600182019150602085019450602081019050612cf1565b86831015612d335784890151612d2f601f891682612c3c565b8355505b6001600288020188555050505b505050505050565b600081905092915050565b6000612d5e8261208a565b612d688185612d48565b9350612d788185602086016120a6565b80840191505092915050565b6000612d908285612d53565b9150612d9c8284612d53565b91508190509392505050565b7f4552433732313a207472616e736665722066726f6d20696e636f72726563742060008201527f6f776e6572000000000000000000000000000000000000000000000000000000602082015250565b6000612e04602583612095565b9150612e0f82612da8565b604082019050919050565b60006020820190508181036000830152612e3381612df7565b9050919050565b7f4552433732313a207472616e7366657220746f20746865207a65726f2061646460008201527f7265737300000000000000000000000000000000000000000000000000000000602082015250565b6000612e96602483612095565b9150612ea182612e3a565b604082019050919050565b60006020820190508181036000830152612ec581612e89565b9050919050565b7f4552433732313a20617070726f766520746f2063616c6c657200000000000000600082015250565b6000612f02601983612095565b9150612f0d82612ecc565b602082019050919050565b60006020820190508181036000830152612f3181612ef5565b9050919050565b7f4552433732313a207472616e7366657220746f206e6f6e20455243373231526560008201527f63656976657220696d706c656d656e7465720000000000000000000000000000602082015250565b6000612f94603283612095565b9150612f9f82612f38565b604082019050919050565b60006020820190508181036000830152612fc381612f87565b9050919050565b7f4552433732313a206d696e7420746f20746865207a65726f2061646472657373600082015250565b6000613000602083612095565b915061300b82612fca565b602082019050919050565b6000602082019050818103600083015261302f81612ff3565b9050919050565b7f4552433732313a20746f6b656e20616c7265616479206d696e74656400000000600082015250565b600061306c601c83612095565b915061307782613036565b602082019050919050565b6000602082019050818103600083015261309b8161305f565b9050919050565b7f45524337323155524953746f726167653a2055524920736574206f66206e6f6e60008201527f6578697374656e7420746f6b656e000000000000000000000000000000000000602082015250565b60006130fe602e83612095565b9150613109826130a2565b604082019050919050565b6000602082019050818103600083015261312d816130f1565b9050919050565b600081519050919050565b600082825260208201905092915050565b600061315b82613134565b613165818561313f565b93506131758185602086016120a6565b61317e816120d0565b840191505092915050565b600060808201905061319e60008301876121d1565b6131ab60208301866121d1565b6131b860408301856122ba565b81810360608301526131ca8184613150565b905095945050505050565b6000815190506131e481611ffb565b92915050565b600060208284031215613200576131ff611fc5565b5b600061320e848285016131d5565b91505092915050565b7f4e487b7100000000000000000000000000000000000000000000000000000000600052601260045260246000fdfea26469706673582212206906b16f0cdd1aeee40ed05c2526fa1309e7ac87bfb9663b2e6a1c8f78ca2d9364736f6c63430008180033",
  "linkReferences": {},
  "deployedLinkReferences": {}
}