{
  "_format": "hh-sol-artifact-1",
  "contractName": "Store",
  "sourceName": "contracts/Store.sol",
  "abi": [
    {
      "inputs": [],
      "stateMutability": "nonpayable",
      "type": "constructor"
    },
    {
      "inputs": [],
      "name": "get",
      "outputs": [
        {
          "internalType": "string",
          "name": "",
          "type": "string"
        }
      ],
      "stateMutability": "view",
      "type": "function"
    },
    {
      "inputs": [],
      "name": "ipfsHash",
      "outputs": [
        {
          "internalType": "string",
          "name": "",
          "type": "string"
        }
      ],
      "stateMutability": "view",
      "type": "function"
    },
    {
      "inputs": [],
      "name": "owner",
      "outputs": [
        {
          "internalType": "address",
          "name": "",
          "type": "address"
        }
      ],
      "stateMutability": "view",
      "type": "function"
    },
    {
      "inputs": [
        {
          "internalType": "string",
          "name": "_ipfsHash",
          "type": "string"
        }
      ],
      "name": "set",
      "outputs": [],
      "stateMutability": "nonpayable",
      "type": "function"
    }
  ],
  "bytecode": "0x608060405234801561001057600080fd5b50336000806101000a81548173ffffffffffffffffffffffffffffffffffffffff021916908373ffffffffffffffffffffffffffffffffffffffff1602179055506108fc806100606000396000f3fe608060405234801561001057600080fd5b506004361061004c5760003560e01c80634ed3885e146100515780636d4ce63c1461006d5780638da5cb5b1461008b578063c623674f146100a9575b600080fd5b61006b60048036038101906100669190610406565b6100c7565b005b610075610168565b60405161008291906104ce565b60405180910390f35b6100936101fa565b6040516100a09190610531565b60405180910390f35b6100b161021e565b6040516100be91906104ce565b60405180910390f35b60008054906101000a900473ffffffffffffffffffffffffffffffffffffffff1673ffffffffffffffffffffffffffffffffffffffff163373ffffffffffffffffffffffffffffffffffffffff1614610155576040517f08c379a000000000000000000000000000000000000000000000000000000000815260040161014c906105be565b60405180910390fd5b806001908161016491906107f4565b5050565b6060600180546101779061060d565b80601f01602080910402602001604051908101604052809291908181526020018280546101a39061060d565b80156101f05780601f106101c5576101008083540402835291602001916101f0565b820191906000526020600020905b8154815290600101906020018083116101d357829003601f168201915b5050505050905090565b60008054906101000a900473ffffffffffffffffffffffffffffffffffffffff1681565b6001805461022b9061060d565b80601f01602080910402602001604051908101604052809291908181526020018280546102579061060d565b80156102a45780601f10610279576101008083540402835291602001916102a4565b820191906000526020600020905b81548152906001019060200180831161028757829003601f168201915b505050505081565b6000604051905090565b600080fd5b600080fd5b600080fd5b600080fd5b6000601f19601f8301169050919050565b7f4e487b7100000000000000000000000000000000000000000000000000000000600052604160045260246000fd5b610313826102ca565b810181811067ffffffffffffffff82111715610332576103316102db565b5b80604052505050565b60006103456102ac565b9050610351828261030a565b919050565b600067ffffffffffffffff821115610371576103706102db565b5b61037a826102ca565b9050602081019050919050565b82818337600083830152505050565b60006103a96103a484610356565b61033b565b9050828152602081018484840111156103c5576103c46102c5565b5b6103d0848285610387565b509392505050565b600082601f8301126103ed576103ec6102c0565b5b81356103fd848260208601610396565b91505092915050565b60006020828403121561041c5761041b6102b6565b5b600082013567ffffffffffffffff81111561043a576104396102bb565b5b610446848285016103d8565b91505092915050565b600081519050919050565b600082825260208201905092915050565b60005b8381101561048957808201518184015260208101905061046e565b60008484015250505050565b60006104a08261044f565b6104aa818561045a565b93506104ba81856020860161046b565b6104c3816102ca565b840191505092915050565b600060208201905081810360008301526104e88184610495565b905092915050565b600073ffffffffffffffffffffffffffffffffffffffff82169050919050565b600061051b826104f0565b9050919050565b61052b81610510565b82525050565b60006020820190506105466000830184610522565b92915050565b7f4f6e6c7920746865206f776e65722063616e207365742074686520495046532060008201527f6861736800000000000000000000000000000000000000000000000000000000602082015250565b60006105a860248361045a565b91506105b38261054c565b604082019050919050565b600060208201905081810360008301526105d78161059b565b9050919050565b7f4e487b7100000000000000000000000000000000000000000000000000000000600052602260045260246000fd5b6000600282049050600182168061062557607f821691505b602082108103610638576106376105de565b5b50919050565b60008190508160005260206000209050919050565b60006020601f8301049050919050565b600082821b905092915050565b6000600883026106a07fffffffffffffffffffffffffffffffffffffffffffffffffffffffffffffffff82610663565b6106aa8683610663565b95508019841693508086168417925050509392505050565b6000819050919050565b6000819050919050565b60006106f16106ec6106e7846106c2565b6106cc565b6106c2565b9050919050565b6000819050919050565b61070b836106d6565b61071f610717826106f8565b848454610670565b825550505050565b600090565b610734610727565b61073f818484610702565b505050565b5b818110156107635761075860008261072c565b600181019050610745565b5050565b601f8211156107a8576107798161063e565b61078284610653565b81016020851015610791578190505b6107a561079d85610653565b830182610744565b50505b505050565b600082821c905092915050565b60006107cb600019846008026107ad565b1980831691505092915050565b60006107e483836107ba565b9150826002028217905092915050565b6107fd8261044f565b67ffffffffffffffff811115610816576108156102db565b5b610820825461060d565b61082b828285610767565b600060209050601f83116001811461085e576000841561084c578287015190505b61085685826107d8565b8655506108be565b601f19841661086c8661063e565b60005b828110156108945784890151825560018201915060208501945060208101905061086f565b868310156108b157848901516108ad601f8916826107ba565b8355505b6001600288020188555050505b50505050505056fea2646970667358221220511b89248f40bce560c0dd71f98bc4161d3e20d744dfc52a072cf1c91b89871264736f6c63430008180033",
  "linkReferences": {},
  "deployedLinkReferences": {}
}